:020000040800F2
:10000000D00A002079020008BB180008D9170008A0
:10001000B9180008FD0500088D1F00080000000049
:10002000000000000000000000000000BF180008F1
:10003000FF05000800000000BD180008C1180008F6
:10004000930200089302000893020008930200083C
:10005000930200089302000893020008930200082C
:10006000930200089302000893020008930200081C
:10007000930200089302000893020008930200080C
:1000800093020008930200089302000893020008FC
:1000900093020008930200089302000893020008EC
:1000A00093020008930200089302000893020008DC
:1000B00093020008930200089302000893020008CC
:1000C00093020008930200089302000893020008BC
:1000D000930200089302000893020008651F0008BD
:1000E000930200089302000893020008930200089C
:1000F000930200089302000893020008930200088C
:10010000930200089302000893020008930200087B
:1001100093020008930200089302000831190008B6
:10012000930200089302000893020008930200085B
:10013000930200089302000893020008930200084B
:10014000930200089302000893020008930200083B
:10015000930200089302000893020008930200082B
:10016000930200089302000893020008930200081B
:10017000930200089302000893020008930200080B
:1001800093020008930200089302000893020008FB
:100190009302000800000000930200089302000888
:1001A00093020008930200089302000893020008DB
:1001B00093020008930200089302000893020008CB
:1001C00093020008930200089302000893020008BB
:1001D000930200089302000800F002F800F03CF8D7
:1001E0000AA090E8000C82448344AAF10107DA4592
:1001F00001D100F031F8AFF2090EBAE80F0013F0A8
:10020000010F18BFFB1A43F001031847802A0000B2
:10021000A02A0000103A24BF78C878C1FAD8520743
:1002200024BF30C830C144BF04680C607047000070
:100230000023002400250026103A28BF78C1FBD8EF
:10024000520728BF30C148BF0B6070471FB502F08E
:10025000F7FB1FBD10B510BD00F07EF91146FFF78A
:10026000F5FF02F09BFA00F09CF903B4FFF7F2FFF0
:1002700003BC00F013F90000094880470948004713
:10028000FEE7FEE7FEE7FEE7FEE7FEE7FEE7FEE746
:10029000FEE7FEE704480549054A064B70470000A3
:1002A00021190008D9010008D0040020D00A00203C
:1002B000D0060020D006002053EA020C00F069802E
:1002C0002DE9F04B4FF00006002B1FBFB3FA83F56A
:1002D00003FA05F424FA05F65E4012BF1643B2FA9B
:1002E00082F502FA05F4C5F120051EBF22FA05FCCD
:1002F00044EA0C04203556EA044C4FEA144418BF73
:10030000641C4FF000084FF00009904271EB030CA1
:1003100039D3002919BFB1FA81F701FA07F6B0FA0B
:1003200080F700FA07F6C7F120071EBF20FA07FC86
:1003300046EA0C062037B6FBF4FCA7EB0507103F96
:1003400007F01F0BCBF120060CFA0BFB2CFA06F67C
:1003500044BFB3460026202FA4BF5E464FF0000BDB
:100360005BEA060C08BF4FF0010B19EB0B09ABFB66
:10037000027C48EB0608C01B06FB02CC0BFB03CC3F
:1003800071EB0C01C1E70B46024641464846BDE809
:10039000F08B13B54FF000004FF00001AFF3008079
:1003A000BDE81C40704710B5002000F07DF8FFF755
:1003B00051FFBDE81040012000F070B8032A40F260
:1003C000308010F0030C00F0158011F8013BBCF1F7
:1003D000020F624498BF11F801CB00F8013B38BF0F
:1003E00011F8013BA2F1040298BF00F801CB38BF1D
:1003F00000F8013B11F0030300F05D80083AC0F003
:10040000088051F8043B083A51F804CBA0E80810E2
:10041000F5E7121D5CBF51F8043B40F8043BAFF315
:100420000080D20724BF11F8013B11F801CB48BF6F
:1004300011F8012B24BF00F8013B00F801CB48BFA5
:1004400000F8012B70474FF0000200B513469446A8
:100450009646203922BFA0E80C50A0E80C50B1F11C
:100460002001BFF4F7AF090728BFA0E80C5048BF30
:100470000CC05DF804EB890028BF40F8042B08BFCE
:10048000704748BF20F8022B11F0804F18BF00F8CA
:10049000012B7047704770477047000001491820D2
:1004A000ABBEFEE72600020010B500F03DF8BDE847
:1004B000104000F033B810B5203AC0F00B80B1E81E
:1004C0001850203AA0E81850B1E81850A0E8185089
:1004D000BFF4F5AF5FEA027C24BFB1E81850A0E892
:1004E000185044BF18C918C0BDE810405FEA827CAC
:1004F00024BF51F8043B40F8043B08BF7047D207C3
:1005000028BF31F8023B48BF11F8012B28BF20F863
:10051000023B48BF00F8012B70477047002801D00C
:10052000FFF7BCBF7047000010B5002102A000F02B
:1005300041F8012010BD0000534947414252543A4E
:100540002041626E6F726D616C207465726D696EB0
:100550006174696F6E000000754600F04BF8AE469E
:1005600005006946534620F00700854618B020B5BF
:10057000FFF790FEBDE820404FF000064FF0000767
:100580004FF000084FF0000B21F00701AC46ACE83B
:10059000C009ACE8C009ACE8C009ACE8C0098D46A8
:1005A000704710B50446AFF300802046BDE8104008
:1005B000FFF75BBE70B505460C460A2000E06D1CD7
:1005C00000F011F835B128780028F8D102E0641C59
:1005D00000F009F814B120780028F8D1BDE8704087
:1005E0000A20AFF3008008B569468DF800000320AB
:1005F000ABBE08BD0048704770040020FEE770479E
:1006000072B6FEE72DE9F04FDFF80C9200230126C9
:100610000325A9F1040B85B00F2709F1040AABF1FA
:10062000040EF1E006FA03FC12EA0C027ED00C790B
:1006300004F00304012C01D0022C20D18468009422
:100640005C0005FA04F80494009C24EA0804009471
:10065000D1F80C80049C08FA04F8009C48EA0408CD
:10066000C0F80880446824EA0C0491F804C0CCF374
:10067000001C0CFA03FC4CEA040CC0F804C00C7912
:10068000E443A40702D18C68012C0ED0C4684FEA61
:10069000430805FA08FC24EA0C04D1F808C00CFA57
:1006A00008FC4CEA040CC0F80CC00C7904F00304FC
:1006B000022C16D1DC0800EB840CCDF808C0DCF865
:1006C00020C05C074FEAD46807FA08F42CEA040C4F
:1006D0000C6904FA08F444EA0C04DDF808C0CCF80C
:1006E000204004684FEA430805FA08FC24EA0C0499
:1006F00091F804C00CF0030C0CFA08FC4CEA040C52
:10070000C0F800C04C6814F4403F7CD0434CD4F88F
:1007100060C04CF0010CC4F860C0246E23F0030CE0
:1007200004F0010400943E4C644400E06BE0029449
:10073000A4684FEA837C4FEA1C7807FA08FC24EA95
:100740000C04B0F1904F06D0DFF8D8C0604505D159
:100750004FF0010C20E04FF0000C1DE0DFF8C8C0A6
:10076000604502D14FF0020C16E0DFF8C0C06045D2
:1007700002D14FF0030C0FE0DFF8B4C0604502D1A6
:100780004FF0040C08E0DFF8ACC0604502D14FF038
:10079000050C01E04FF0060C0CFA08FC4CEA040CC6
:1007A000029CC4F808C0D9F80040CC46D1F80480B7
:1007B00094435FEAC82800D51443CCF80040DAF827
:1007C0000040D446D1F8048094435FEA882800D5DD
:1007D0001443CCF80040DBF80040DC46D1F804803C
:1007E00094435FEA883800D51443CCF80040DEF823
:1007F0000040F446D1F8048094435FEAC83800D53D
:100800001443CCF800405B1C0C682246DC407FF4AB
:1008100009AF05B0BDE8F08F0804014000100240A8
:10082000000001400004004800080048000C004897
:10083000001000480014004801488068704700001C
:1008400014000020024881684268114481607047AA
:100850001400002010B50024032000F073F80F20CE
:1008600000F008F808B1012401E000F025F8204666
:1008700010BD000070B50E4E05460024706898B19A
:100880004FF47A71B1FBF0F00A490968B1FBF0F05E
:1008900000F09AFD40B9102D06D200222946501EC4
:1008A00000F030F8356000E00124204670BD000003
:1008B00014000020200000200A4882B0016E41F0A0
:1008C00001010166016E01F001010091816D41F0AD
:1008D00080518165806D00F08050009002B000F082
:1008E000A1B8000000100240002809DB00F01F0240
:1008F000012191404009800000F1E020C0F8001182
:1009000070470000F0B40E4B1B680C46C3F3022383
:10091000C3F10705042D00D90425191D072901D2AB
:10092000002300E0DB1E012606FA05F1491E2140E6
:1009300099409E40761E16403143F0BC01F027BB23
:100940000CED00E0064900F0070208684FF6FF03CF
:10095000184040EA0220034A104308607047000034
:100960000CED00E00000FA052B492C4B0A683221FF
:100970004A432B4940B1B0F5007F086829D020F4E4
:10098000C06040F480602CE00868C0F34120022879
:1009900004D051F8800F20F4807022E0D1F880005C
:1009A00020F48070C1F88000086820F4C06040F432
:1009B00000700860B2FBF3F0401C00E0401E4A6982
:1009C000520501D50028F9D1486940050AD5032010
:1009D0007047C0F34120022806D051F8800F40F440
:1009E0008070086000207047D1F8800040F480706B
:1009F000C1F88000086820F4C06040F4007008600E
:100A0000B2FBF3F0401C00E0401E4A695205DBD502
:100A10000028F9D1D8E700002000002040420F0054
:100A2000007000400248816841F480418160704755
:100A3000007000402DE9F843044600680026BB4DD5
:100A400000035ED5A86D0027C00008D4A86D40F053
:100A50008050A865A86D012700F080500090DFF855
:100A6000D092D9F8001041F48071C9F80010FFF756
:100A7000E3FE804606E000BFFFF7DEFEA0EB0800C5
:100A800002282BD8D9F80000C005F5D5D5F890007C
:100A900010F4407014D0216D814211D0D5F890002F
:100AA000D5F8901020F4407041F48031C5F89010D2
:100AB000D5F8901021F48031C5F89010C5F8900059
:100AC000C00711D0FFF7B8FE804641F2883907E031
:100AD000FFF7B2FEA0EB0801494501D903260BE060
:100AE000D5F890008007F3D5D5F89000216D20F45B
:100AF00040700843C5F890001FB1A86D20F08050E9
:100B0000A8652078C00707D0D5F88800616820F074
:100B100003000843C5F888002078800707D5D5F87A
:100B20008800A16820F00C000843C5F888002078F0
:100B3000400707D5D5F88800E16820F03000084369
:100B4000C5F888002078000707D5D5F88800216906
:100B500020F0C0000843C5F888002078C00607D5FB
:100B6000D5F88800616920F440700843C5F8880012
:100B70002078800607D5D5F88800A16920F4406068
:100B80000843C5F888002078400607D5D5F88800C6
:100B9000E16920F440500843C5F888002078000639
:100BA00007D5D5F88800216A20F440400843C5F8ED
:100BB00088002088C00507D5D5F88800616A20F430
:100BC00040300843C5F888002068800307D5D5F871
:100BD0009C00A16A20F003000843C5F89C0020880F
:100BE000800507D5D5F88800E16A20F44020084345
:100BF000C5F88800208840050FD5D5F88800216BFE
:100C000020F440100843C5F88800206BB0F5801F21
:100C100003D1E86840F48010E860208800050FD513
:100C2000D5F88800616B20F440000843C5F88800BF
:100C3000606BB0F5800F03D1E86840F48010E86085
:100C40002088C0040FD5D5F88800A16B20F0407033
:100C50000843C5F88800A06BB0F1807F03D1E86835
:100C600040F48010E86020884FF0006180040ED5C9
:100C7000D5F88800E26B20F040601043C5F888008A
:100C8000E06B884203D1E86840F48010E860208877
:100C900040040ED5D5F88800226C20F04060104347
:100CA000C5F88800206C884203D1E86840F48010C1
:100CB000E860208800040FD5D5F88800616C20F02A
:100CC00040500843C5F88800606CB0F1805F03D1E4
:100CD000E86840F48030E8602068C0030FD5D5F89C
:100CE0008800A16C20F040400843C5F88800A06C43
:100CF000B0F1804F03D1E86840F48030E8602068AC
:100D000040030FD5D5F89C00E16C20F44010084357
:100D1000C5F89C00E06CB0F5001F03D1E86840F412
:100D20008010E8603046BDE8F88300000010024003
:100D3000007000402DE9F0470E4605004FF0000717
:100D400025D0DFF8AC81D8F8000000F00F00B042E9
:100D50000CD2D8F8001021F00F013143C8F8001070
:100D6000D8F8000000F00F00B04210D12968614CA3
:100D7000C80741F2883A5AD06868DFF87C910328A6
:100D800008D0022820682DD0400500282CDB012047
:100D9000BDE8F08720688001F9D5E06800F0030223
:100DA000E068C0F30310401C032A19D0534A00BF67
:100DB000B2FBF0F0E268C2F306225043E268C2F3ED
:100DC0004162521C5200B0FBF2F0484517D9A068AE
:100DD00010F0F00F0CD0880711D5A86840B10EE0D4
:100DE000474AE5E78003D0E700F0B6F8484506D962
:100DF000A06820F0F00040F08000A0608027A0688C
:100E0000696820F003000843A060FFF715FD8146E4
:100E100006E000BFFFF710FDA0EB090151453AD8ED
:100E2000A068696800F00C00B0EB810FF2D128686F
:100E3000810714D5400703D5A06840F4E060A060A6
:100E40002878000705D5A06820F4605040F4E060E1
:100E5000A060A068A96820F0F000084304E0802F9B
:100E600003D1A06820F0F000A060D8F80010404640
:100E700001F00F01B14216D9016821F00F01314391
:100E80000160FFF7D9FC074607E000BFFFF7D4FC7D
:100E9000C11B514501D903207AE7D8F8000000F0C2
:100EA0000F00B042F2D12878400705D5A068E96864
:100EB00020F4E0600843A0602878000706D5A06809
:100EC000296920F4605040EAC100A06000F044F8B5
:100ED000A1680C4AC1F30311515C01F01F01C84025
:100EE0000949086009480068BDE8F047FFF7C2BC3F
:100EF000002002400010024000B4C4040024F400AA
:100F000000127A00722A000820000020140000203D
:100F10000548064900688968054AC1F30221515C09
:100F200001F01F01C840704720000020001002405F
:100F3000822A00080548064900688968054AC1F305
:100F4000C221515C01F01F01C84070472000002001
:100F500000100240822A0008184910B58868C0F3C2
:100F600081021748012A0BD08A684310C2F381021C
:100F7000022A06D08A68C2F38102032A03D0002025
:100F800010BD184610BDCA6802F00304CA68C2F357
:100F90000312521C032C02D0B0FBF2F001E0B3FBB1
:100FA000F2F0CA68C968C2F306225043C1F3416136
:100FB000491C4900B0FBF1F010BD000000100240D8
:100FC0000024F4002DE9F84304007AD02078F84D8D
:100FD000C00747D0A868E96800F00C0001F00301E1
:100FE0000C2802D0082817D001E0032914D060682B
:100FF000B0F5803F17D0B0F5A02F286817D020F4A7
:1010000080302860286820F4802028606068E0B183
:10101000FFF712FC064614E02868800322D56068BA
:101020000028D2D01EE0286840F48030EDE740F47C
:1010300080202860F7E700BFFFF7FEFB801B6428D5
:1010400070D828688003F7D50CE0FFF7F5FB06465B
:1010500005E000BFFFF7F0FB801B6428F0D828688C
:101060008003F7D4207880074CD5A868E96800F0A1
:101070000C0001F003010C2802D004280DD001E07F
:1010800002290AD0E068002828682BD040F480703C
:101090002860FFF7D1FB064619E02868400502D515
:1010A000E068002891D06868217C20F0FE4040EA8A
:1010B00001606860BF480068FFF7DCFB002800D1D2
:1010C00020E072E1FFF7B8FB801B0228B8D828683F
:1010D0004005F7D56868217C20F0FE4040EA0160B9
:1010E00068600FE020F480702860FFF7A5FB0646DB
:1010F00005E000BFFFF7A0FB801B0228A0D82868EE
:101100004005F7D42078000729D560690028D5F874
:10111000940013D040F00100C5F89400FFF78CFB59
:10112000064606E090E000BFFFF786FB801B022822
:1011300086D8D5F894008007F6D510E020F001009D
:10114000C5F89400FFF778FB064604E0FFF774FB50
:10115000801B022878D8D5F894008007F6D4207830
:10116000400761D5A86D0026C00008D4A86D40F0E6
:101170008050A865A86D012600F0805000908E4830
:101180000168C90511D40168804641F4807101608D
:10119000FFF752FB074604E0FFF74EFBC01B022897
:1011A00052D8D8F80000C005F6D5A068012815D09F
:1011B0000528D5F8900016D020F00100C5F8900061
:1011C000D5F8900020F00400C5F89000A06841F226
:1011D0008838B8B1FFF730FB07460EE0D5F890002D
:1011E00040F00100F0E740F00400C5F89000F5E79A
:1011F000FFF722FBC11B414526D8D5F89000800798
:10120000F6D50CE0FFF718FB074604E0FFF714FBE8
:10121000C11B414518D8D5F890008007F6D41EB1FF
:10122000A86D20F08050A8652078800629D5A06997
:101230000028D5F8980013D040F00100C5F89800B8
:10124000FFF7FAFA064606E075E000BFFFF7F4FA8A
:10125000801B02286FD8D5F898008007F6D510E0DB
:1012600020F00100C5F89800FFF7E6FA064604E012
:10127000FFF7E2FA801B02285DD8D5F898008007B6
:10128000F6D4E069F0B3A968C1F3810103295DD008
:101290000228286820F08070286003D0FFF7CCFA7D
:1012A00004464BE0FFF7C8FA064604E0FFF7C4FA2D
:1012B000801B02283FD828688001F7D4F4E9080190
:1012C0006FF00F0202EB01110843218A5204490812
:1012D00002EB4151A26841EA02210843217D4FF00F
:1012E0007E42490802EB41610843217B40EAC1602C
:1012F000E968324A11400843E860286840F080708D
:10130000286000E05EE0E86840F08070E860FFF789
:1013100093FA044605E000BFFFF78EFA001B02288F
:1013200009D828688001F7D54CE000BFFFF784FAA0
:10133000001B022802D90320BDE8F8832868800139
:10134000F4D4E8681E490840E8603BE00128F3D087
:10135000E868226A00F00301914226D1616A00F038
:10136000F0020901103991421FD1A26A00F4FE4136
:10137000B1EB022F19D194F82C2000F07841B1EB99
:10138000C26F12D1218E00F4C00249084905A1F5AF
:101390000011914209D194F8341000F0C06049085E
:1013A0004906A1F1007181420CD00120C4E7000080
:1013B0000010024014000020007000400C809F01CB
:1013C000FCFFEEFE0020B7E710B5401EB0F1807FB5
:1013D00001D3012010BD4FF0E02460610F216017A0
:1013E00000F0D5FD0020A06107202061002010BD85
:1013F000F0B590F83C20012A43D0012580F83C50FC
:10140000022280F83D2003685A689C681E4E1F4FD8
:10141000DFF87CC0B34203D0BB4201D0634504D1A6
:1014200022F4700E4A6842EA0E02DFF868E002EA2F
:101430000E02D1F800E04EEA020EC3F804E00268A2
:10144000B24212D0B2F1804F0FD0134B9A420CD05F
:10145000124B9A4209D0124B9A4206D0BA4204D09B
:10146000104B9A4201D0624504D1896824F0800370
:101470001943916080F83D50002180F83C100846E7
:10148000F0BD0220F0BD0000002C014000340140FE
:10149000005001408FFFFFFD0004004000080040A5
:1014A000000C00400040014010B5040003D094F847
:1014B0003D0010B107E0012010BD002084F83C0081
:1014C000204600F023F8022084F83D00211D20680A
:1014D00000F03EFA012084F8480084F83E0084F8C9
:1014E0003F0084F8400084F8410084F8420084F80A
:1014F000430084F8440084F8450084F8460084F8EA
:10150000470084F83D00002010BD000008B50068C9
:101510000B49884212D10B48816D41F02001816551
:10152000806D002200F02000009011463720FFF768
:10153000E9F9BDE808403720FFF7D6B908BD00003B
:10154000001400400010024090F83D10012901D025
:1015500001207047022180F83D100168CA6842F0FE
:101560000102CA6000681349884214D0B0F1804F6C
:1015700011D0114988420ED0104988420BD0104931
:10158000884208D00F49884205D00F49884202D0CE
:101590000E49884207D181680D4A1140062906D0BC
:1015A000B1F5803F03D0016841F0010101600020E6
:1015B00070470000002C014000040040000800407B
:1015C000000C004000340140004001400050014048
:1015D000070001000168CA6822F00102CA600168C0
:1015E0000A6A084B1A4207D10A6A9B111A4203D1B0
:1015F0000A6822F001020A60012180F83D100020F3
:10160000704700001111110090F88410012918D0C2
:10161000012180F884102421C0F8881001680A682C
:101620000B6823F001030B6022F000510022426698
:10163000036819602021C0F8881080F884201046C3
:1016400070470220704770B5044690F88400012866
:101650001DD0012084F884002420C4F8880020686C
:101660000568026822F0010202602068826822F0A8
:1016700060620A438260204600F0D8F92068056065
:101680002020C4F88800002084F8840070BD022067
:1016900070BD70B5044690F8840001281DD001206B
:1016A00084F884002420C4F8880020680568026853
:1016B00022F0010202602068826822F060420A4340
:1016C0008260204600F0B2F9206805602020C4F84E
:1016D0008800002084F8840070BD022070BD10B521
:1016E000040003D0D4F8880010B107E0012010BD39
:1016F000002084F88400204600F026F82420C4F856
:1017000088002068016821F001010160A06A10B121
:10171000204600F0ADF9204600F08EFA0128E6D010
:101720002068416821F4904141602068816821F07F
:101730002A0181602068016841F0010101602046B2
:10174000BDE8104000F0F8B910B59CB00446142173
:1017500015A8FEF778FE54216846FEF774FE1B4973
:10176000206888422FD1042000240090039468460A
:10177000FFF760F908B1FEF743FF1548816D41F4AA
:1017800080218165816D01F480211A91C16C41F045
:101790000201C164C06C15A900F002001A904FF458
:1017A000406015900220CDE916040720CDE91840CD
:1017B0000848FEF727FF002211462720FFF7A2F86E
:1017C0002720FFF791F81CB010BD00000048004032
:1017D0000010024000040048FEE70000094808B578
:1017E000C16C41F00201C164C16C01F002010091C1
:1017F000C16C41F00101C164C06C00F001000090B7
:1018000008BD0000001002403EB500240F480094BF
:1018100001940D490294016040F21F31C0E90114A6
:1018200022218461C160FFF73FFE08B1FEF7E8FEA8
:101830000094694605480294FFF7DAFD002801D0BC
:10184000FEF7DEFE3EBD00000014004070020020E6
:10185000184810B5164901604FF4E131416000218C
:1018600081600C22C160C0E904128161C161016222
:1018700041628162FFF733FF08B1FEF7C1FE00212C
:101880000C48FFF706FF08B1FEF7BAFE0021094831
:10189000FFF7D9FE08B1FEF7B3FE0648FFF7B4FE26
:1018A000002803D0BDE81040FEF7AABE10BD00001E
:1018B00000480040BC020020FEE7FEE7704770478A
:1018C000FEF7C0BF10B594B038216846FEF7BBFDE7
:1018D00014210EA8FEF7B7FD4FF40070FFF744F88F
:1018E00002200090C001039040200024049007943F
:1018F0006846FFF767FB08B172B6FEE70F200E904F
:101900000120CDE90F04119400210EA81294FFF7D5
:1019100011FA002801D072B6FEE714B010BD000025
:101920000248016841F470010160704788ED00E0F1
:10193000054800680169C90705D06FF00101016120
:101940000248006800477047700200204C000020E9
:101950002DE9F04F02682C4B2C4E2D4FDFF8B4C010
:101960002D4C2E4D4FF0804B98420BD0584509D04E
:10197000B04207D0B84205D0604503D0A04201D0A4
:10198000A84204D122F070084A6842EA0802DFF84F
:101990009080DFF89090DFF890A0984211D05845E1
:1019A0000FD0B0420DD0B8420BD0604509D0A04254
:1019B00007D0404505D0484503D0504501D0A84246
:1019C00003D122F44076CA6832434E6922F0800285
:1019D00032438E68C6620E688662984209D0A04281
:1019E00007D0404505D0484503D0504501D0A84216
:1019F00001D109690163016841F00401016001211D
:101A000041610260BDE8F08F002C014000040040FD
:101A100000080040000C004000340140005001402C
:101A200000400140004401400048014030B5416E93
:101A3000B9B1026891689268C1F342610B4B520FD1
:101A40009C5CE50003F10804A25CB5FBF2F2A0F88F
:101A50006A205A5C615CD200B2FBF1F1A0F8681018
:101A600030BD0121A0F86A10F8E70000622A0008E2
:101A700090F82810090706D501684A68836B22F49C
:101A800000421A434A6090F82810C90706D001683E
:101A90004A68C36A22F400321A434A6090F8281058
:101AA000890706D501684A68036B22F480321A431D
:101AB0004A6090F82810490706D501684A68436BC8
:101AC00022F480221A434A6090F82810C90606D5ED
:101AD00001688A68C36B22F480521A438A6090F8C6
:101AE0002810890606D501688A68036C22F4005222
:101AF0001A438A6090F82810490611D501684A688F
:101B0000436C22F480121A434A60416CB1F5801F85
:101B100006D101684A68836C22F4C0021A434A6005
:101B200090F82810090606D501684A68C06C22F4AE
:101B3000002202434A6070472DE9F843002604461C
:101B4000C0F89060FEF778FE8046206800684FF08D
:101B5000200500076FF07E4713D543460022290475
:101B60002046009700F0B4F958B1216851E8000F01
:101B700020F0800041E80002002AF6D1C4F8885025
:101B800021E020680068400722D5434600224FF438
:101B900080012046009700F09BF9C8B1216851E808
:101BA000000F20F4907041E80002002AF6D120686E
:101BB000083050E8001F21F0010140E80012002A1F
:101BC000F5D1C4F88C5084F884600320BDE8F88314
:101BD000C4F88850C4F88C5044F86C6F6660267660
:101BE0000020F3E710B5026852E8001F21F490715D
:101BF00042E80013002BF6D10E4B0268083252E87F
:101C0000001F194042E80014002CF6D1C16E0129D2
:101C100008D1016851E8002F22F0100241E80023AA
:101C2000002BF6D12021C0F88C100021C16641673D
:101C300010BD0000FEFFFFEF2DE9F04104460168F2
:101C400080682269E3691043626900251A431043E2
:101C5000DFF84CC20A68934B1A4002430A602068BE
:101C60004168E26821F44051114341602168A06954
:101C7000614501D0226A10438A688B4B1A400243A7
:101C80008A602068C16A626A21F00F011143C16253
:101C90008649236886488B420DD1D0F8880010F021
:101CA000030006D0012867D0022854D0032851D160
:101CB00064E001204FE07F498B420BD1D0F88800CF
:101CC00010F00C0047D0042845D0082852D00C282A
:101CD00040D153E078498B420BD1D0F8880010F006
:101CE000300038D0102847D0202843D0302831D1B8
:101CF00044E072498B420BD1D0F8880010F0C0004C
:101D000029D0402838D0802834D0C02822D135E0CE
:101D10006B498B420ED1D0F8880010F440701AD075
:101D2000B0F5807F28D0B0F5007F23D0B0F5407F9C
:101D300010D123E063450DD1D0F8880010F4406045
:101D400009D0B0F5806F17D0B0F5006F12D0B0F5A4
:101D5000406F13D010205B4A5B4F00264FF40041C8
:101D6000634539D160B102280DD004280DD0082870
:101D700031D10EE00220EEE70420ECE70820EAE78C
:101D8000FFF7C6F803E0114603E0FFF7E5F80100AE
:101D90007BD0606A37F810206768B1FBF2F007EB80
:101DA0004703834269D8B0EB073F66D80023084653
:101DB0001946FEF781FA090241EA10610202780829
:101DC000101871413A460023FEF776FA3F4AA0F513
:101DD0004071914257D950E0E3694FF6EF788B425A
:101DE0002BD1092849D2DFE800F005080D48254825
:101DF00048480E00FFF78CF801E0FFF79BF8010060
:101E000001D142E01146606A37F81000B1FBF0F0F2
:101E10004100606801EB5001B1FBF0F1A1F110004D
:101E200040452AD84FF6F07201EA0200C1F34201A0
:101E3000084328E0FFF790F8E1E709281DD2DFE822
:101E400000F005080D1C1E1C1C1C0E00FFF760F89E
:101E500001E0FFF76FF8010001D116E01146606A5A
:101E600037F81000B1FBF0F1606801EB5001B1FBF5
:101E7000F0F0A0F11001414504D9012505E0FFF77C
:101E80006BF8E8E780B22168C8600120A4F86A0016
:101E900024F8680F2846E6602661BDE8F08100005E
:101EA00000800040F369FFCFFFF4FF1100380140CC
:101EB000001002400044004000480040004C004038
:101EC000005000400024F4004A2A0008FFFC0F00E4
:101ED0002DE9F047994617460D4604464FF0000895
:101EE000089E33E0701C31D0FEF7A6FCA0EB090081
:101EF000B04218D8BEB120680168490726D5802DA8
:101F000024D0402D22D0C169C94309070DD408252A
:101F100005622046FFF766FEC4F8905084F884807E
:101F20000120BDE8F0870320FBE7C069C04300053E
:101F30000CD421684FF4006008622046FFF752FE7F
:101F40002020C4F8900084F88480ECE72068C06901
:101F500035EA000004D00020B842C3D00020E0E7FA
:101F60000120F9E706480068C169890603D52021E8
:101F70000162044802E080210162034800680047D2
:101F8000BC0200204400002048000020FEE70907B2
:101F9000090E002804DB00F1E02080F800147047EF
:101FA00000F00F0000F1E02080F8141D70470000E1
:101FB00070B5064D00242878012802D0062420465A
:101FC00070BD2869804700202870F8E724000020B1
:101FD00070B50C460988002505292FD1417840F2BB
:101FE000CF760A0281781143C278491C1302027924
:101FF00089B21A43531EB34220D200232380012307
:1020000000F8013B2688761C2680560703D003EB98
:10201000D203DEB201E0C2F3C70600F8016B2388E9
:102020005B1C2380002300F0D1FA18B100F0D8FB2C
:10203000054604E020883044208000E0032528463F
:1020400070BD70B50C460988002505292FD141784F
:1020500040F2CF760A0281781143C278491C1302FC
:10206000027989B21A43531EB34220D2002323803F
:10207000022300F8013B23885B1C2380530704D014
:10208000012303EBD203DEB201E0C2F3C70600F87E
:10209000016B23885B1C238000F0E8FA18B100F084
:1020A0009FFB054604E020883044208000E00325A3
:1020B000284670BD70B50C4609880026052928D130
:1020C000417805790A0281781143C278491C45EAB2
:1020D00002256A1E89B27C2A1BD800222280032294
:1020E00000F8012B22880023521C22806A0000F88D
:1020F000012B2288521C22802A4600F0F1FA18B1E6
:1021000000F06EFB064605E0208800EB45002080CD
:1021100000E00326304670BD70B50C4609880026E5
:10212000052927D1417805790A0281781143C278BF
:10213000491C45EA02256A1E89B27C2A1AD200226D
:102140002280042200F8012B2288521C22806A007F
:1021500000F8012B2288521C22802A4600F0F8FA4F
:1021600018B100F03DFB064605E0208800EB450075
:10217000208000E00326304670BD2DE9F041044682
:10218000088800270D460A2842D360782679010284
:10219000A078227A0843401C1FFA80F8E07846EACB
:1021A00000266079731E0102A0790843401C81B2A9
:1021B000E0797C2B42EA0022607A28D83AB3792A67
:1021C00025D8B0EB420F22D1012304F10A0000F020
:1021D00087FA98B900212980172121702988601C6D
:1021E000491C2980710000F8011B29880023491C23
:1021F00029803246414600F073FA18B100F0F0FA37
:10220000074605E0288800EB4600288000E0032709
:102210003846BDE8F081000070B5064C0D46064911
:102220002288401CFEF7CAF82088401C2880002025
:1022300070BD0000D00000205003002038B5098890
:10224000002405290BD141780A0281781143491CE9
:10225000027989B21AB9C278FF2A03D012B10324D5
:10226000204638BD00228DF80120C078FF280CD010
:102270008DF8002001231A46684600F0A7F90028CF
:10228000EED000F0ADFA0446EAE701208DF8000038
:10229000F0E710B509880024052902D00324204660
:1022A00010BD417801230A028178C01C1143491CEA
:1022B00089B21A4600F014FA0028F0D000F090FA23
:1022C0000446ECE72DE9F0410D4609880024052974
:1022D00026D9417843790A0281781143491C8EB28C
:1022E000C178027942EA0122510704D0012101EBB1
:1022F000D201C9B201E0C2F3C701571EB7F5F66FAC
:102300000ED299420CD101233146801D00F05EF9B6
:1023100018B100F065FA044603E00520288000E0CB
:1023200003242046BDE8F08170B50D4609880024DD
:1023300006291DD341780A0281781143C278491CCD
:102340001302027989B21A434379561E772E0FD8A9
:102350005606360E9E420BD10123801D00F0C0F9B7
:1023600018B100F03DFA044603E00520288000E0A3
:102370000324204670BD00002DE9F0411D46069B58
:102380001746064629B1F72903D8134C0846217190
:102390000EB102251BE0114921611149616111490A
:1023A000E1601149A1610021E161104921621049F8
:1023B00061621049A1622A46394600F075F80500AD
:1023C00005D100F067FA28B1667101202070284617
:1023D000BDE8F0810325FAE72400002099250008D4
:1023E000B92500083D250008E9240008E92800086F
:1023F000912900085129000838B52A4C207808B1E5
:10240000062038BD684600F037FA012848D19DF80B
:102410000000012844D0022802D0042840D10FE057
:10242000204AA369921D911CC81F9847C0BB6078C1
:102430002179884200D098BB042000F033FA2FE0C5
:10244000A0680121174B0278A270E17000212C33A3
:1024500013F8315065B1954207D103EBC1014A68C9
:102460001049891D9047E07002E0491C1029EFDBFC
:102470006078A8B1E07870B10021E180A17841F0E6
:102480008002A1680A70E288521C92B2E2808854ED
:10249000E088401CE080D4E90213E2882079984764
:1024A000002038BD2400002070B5154608460024E1
:1024B00072B60822294600F005FA01280DD1B5F5BB
:1024C000964F01D9232003E006496800B1FBF0F0E4
:1024D00080B200F0FFF9012800D0032462B6204644
:1024E00070BD0000A07F17002DE9F0411646884618
:1024F0000746002572B60F4CA088FF2801D9FDF7CA
:1025000052FFA088042804D3A1880B4800F074F976
:1025100020B1052562B62846BDE8F081064800785E
:102520003870A088C01E30800348401CC8F80000E6
:10253000F0E70000D40000207003002070B50346CF
:10254000002572B6124C6078012803D0052562B6CA
:10255000284670BD491E0126A160084666800B70A2
:10256000618811446180618800F046F96188094AF8
:102570005318491C61801870010A60880244401C8D
:102580006080117026700121002000F04BF9DEE719
:10259000D40000207003002010B572B60020054959
:1025A00048700146012000F03DF900F059F962B68B
:1025B00010BD0000D400002010B572B600210846FE
:1025C00000F030F900F046F962B610BD2DE9F04791
:1025D00004460120244F00EBD206A7F10A00491E51
:1025E000458888B281184FF00009402936D8401B31
:1025F000C0F3CC0500F0070A02F007086BB1012B0D
:102600002ED120E078196D1CADB20822514600F0A1
:10261000EDF9761E04F8010BB6B2002EF2D114F8D3
:10262000012DC8F108018A40D0B2C840207017E0DF
:1026300078196D1C14F8013BADB20822514600F028
:10264000E6F9761EB6B2012EF2D85FEA080207D08C
:1026500023787819514600F0DAF901E04FF00109CA
:102660004846BDE8F08700000A0000202DE9F04749
:10267000044617460120DFF8649000EBD705A9F166
:102680000800491E028888B2C1194FF000081029BD
:102690001FD8801AC0F3CC0600F0070A0CE000BF78
:1026A00009EB0600761CB6B20822514600F09EF9EE
:1026B0006D1E04F8010BADB2002DF1D107F007003B
:1026C00014F8012DC0F108018A40D0B2C840207032
:1026D00001E04FF001084046BDE8F0870800002007
:1026E000F0B51A4E491E89B20025174CF6888F188E
:1026F000642F26D8891B89B27BB1012B22D11DE022
:1027000034F811301B0A00F8013B14F81130491C51
:10271000521E00F8013B89B292B2002AF0D111E0BA
:1027200010F8013B1B0224F8113010F8016B334301
:1027300024F81130491C521E89B292B2002AEFD1FE
:1027400000E001252846F0BDA8010020000000207F
:1027500070B5114D491E89B200240E4BAD888E18FC
:10276000642E13D8491B89B20DE000BF33F8115015
:102770002D0A00F8015B13F81150491C521E00F895
:10278000015B89B292B2002AF0D100E00124204618
:1027900070BD0000E00000200000002008B5FEF73A
:1027A00059F8FFF78FF8FFF719F8FFF72DF8FFF743
:1027B0004FF800204FF4E133032201210090FFF78E
:1027C000DBFDFFF7F5FB05480A210180152141805B
:1027D00021218180FFF710FEFCE70000A801002006
:1027E000002804D0012803D0072803D00420704714
:1027F000022070470620704770B5094DFF231A4626
:1028000005F5807606E000BF10F8014B54402A5DC4
:102810005A40335D491E89B2F6D242EA032070BDA8
:102820008A2A00080A4B00281A68106802D040F073
:10283000200001E020F020001060186800290168E5
:1028400002D041F0800101E021F080010160704779
:10285000BC0200200148FEF7BDBE0000700200204F
:1028600004480021026851620068891E0161014824
:10287000FEF76ABE700200200549024600204B7830
:10288000002B04D008781070002048700120704799
:10289000D20000200249002048700120704700004B
:1028A000D2000020024901224A7008701046704789
:1028B000D200002002490968017001207047000021
:1028C00024480040012070470149086001207047FA
:1028D000284800400349401E0A68D062C8600120B1
:1028E000704700007002002038B5174C0025207892
:1028F00008B1FDF758FD6846FFF7DCFF607830B19E
:10290000124A012807D0022810D0032801D1FFF76E
:10291000A7FF284638BD0020A0809DF80000A188B0
:102920000A44491CA180107002200BE0A088FF28F7
:1029300007D89DF80010A0880244401CA0801170A8
:10294000E5E703206070E2E7D40000207003002078
:1029500070B50E4D0024687868B102280CD00328A9
:102960000DD0687858B16878022808D068780328B4
:1029700005D0FDF718FD0120FFF794FF0446FFF78F
:1029800069FF01206870204670BD0000D40000205F
:1029900070B5154C00256078012801D0FDF703FDC6
:1029A000207810B101281CD104E000210120FFF79C
:1029B00039FF16E0608850B1A0680078FFF784FF07
:1029C000A068401CA0606088401E608009E008206C
:1029D000FFF768FF054600210120FFF723FF0020D5
:1029E0002070284670BD0000D400002010B5CB0830
:1029F0005C4201EBC40401219140C25C1844407860
:102A000042EA0020E040491E0840C0B210BD70B547
:102A1000082A01D9FDF7C7FCCC08654201EBC505C2
:102A2000AB4001219140491EA9400519025D6E7815
:102A300042EA06228A431A430255100A687070BDA2
:102A40004FF04070E1EE100A7047010002000400F0
:102A5000060008000A000C00100020004000800062
:102A6000000101010103070100000804020408013C
:102A7000010100000000000000000102030406073D
:102A80000809000000000102030400C1814001C0E8
:102A9000804101C0804100C1814001C0804100C12E
:102AA000814000C1814001C0804101C0804100C11E
:102AB000814000C1814001C0804100C1814001C00E
:102AC000804101C0804100C1814001C0804100C1FE
:102AD000814000C1814001C0804100C1814001C0EE
:102AE000804101C0804100C1814000C1814001C0DE
:102AF000804101C0804100C1814001C0804100C1CE
:102B0000814000C1814001C0804101C0804100C1BD
:102B1000814000C1814001C0804100C1814001C0AD
:102B2000804101C0804100C1814000C1814001C09D
:102B3000804101C0804100C1814001C0804100C18D
:102B4000814000C1814001C0804100C1814001C07D
:102B5000804101C0804100C1814001C0804100C16D
:102B6000814000C1814001C0804101C0804100C15D
:102B7000814000C1814001C0804100C1814001C04D
:102B8000804101C0804100C1814000C0C101C30338
:102B900002C2C60607C705C5C404CC0C0DCD0FCFB5
:102BA000CE0E0ACACB0BC90908C8D81819D91BDB25
:102BB000DA1A1EDEDF1FDD1D1CDC14D4D515D71775
:102BC00016D6D21213D311D1D010F03031F133F325
:102BD000F23236F6F737F53534F43CFCFD3DFF3F75
:102BE0003EFEFA3A3BFB39F9F83828E8E929EB2BA5
:102BF0002AEAEE2E2FEF2DEDEC2CE42425E527E735
:102C0000E62622E2E323E12120E0A06061A163A3A4
:102C1000A26266A6A767A56564A46CACAD6DAF6F34
:102C20006EAEAA6A6BAB69A9A86878B8B979BB7BA4
:102C30007ABABE7E7FBF7DBDBC7CB47475B577B7F4
:102C4000B67672B2B373B17170B050909151935324
:102C5000529296565797559594549C5C5D9D5F9FF4
:102C60009E5E5A9A9B5B99595898884849894B8B24
:102C70008A4A4E8E8F4F8D4D4C8C448485458747B4
:102C8000468682424383418180400000AC2C00088C
:102C900000000020E0000000140200088C2D000855
:102CA000E0000020F00900003002000800000000F1
:102CB0000000000000000000000000000000000014
:102CC0001000000001000000000000000024F400DB
:102CD00002000000000000000000000000000000F2
:102CE00000000000000000000000000000000000E4
:102CF00000000000000000000000000011000000C3
:102D00001922000804000000192100080300000037
:102D1000B52000081000000029230008060000006C
:102D200093220008170000007B210008010000002A
:102D3000D11F0008050000003D2200080F00000020
:102D4000C522000802000000432000080000000027
:102D50000000000000000000000000000000000073
:102D60000000000000000000000000000000000063
:102D70000000000000000000000000000000000053
:0C2D800000000000000000000000000047
:04000005080001D915
:00000001FF
